:020000000E28C8
:10000800FE00030EF1000408F2000A08F3007F085E
:10001800F4005E280F2883120313AA01AB01AC0178
:10002800AD01AE01AF01B00183011A288316031395
:100038008601082183120313AF01B00186128B17C2
:100048000B170130A0008030A100952006308312E4
:100058000313A9001330A800AD30A700A70B32285E
:10006800A80B3228A90B322800000530831203138D
:100078002F063004031D41284228442846302321F6
:100088002A3083120313A0000030A10095200A3003
:100098002321063083120313A9001330A800AD30C2
:1000A800A700A70B5528A80B5528A90B5528000011
:1000B8002A280E28831203138C1E632864288A2892
:1000C80086163008803AFF0080307F02031D6E28B4
:1000D80006302F02031C7128722877288312031315
:1000E800AF01B0018528831203132F082A3E84002C
:1000F8001A08831380000130AF070318B00A0030D4
:10010800B0071A082D218312031386127408FF0002
:1001180073088A0072088400710E8300FE0E7E0E3A
:10012800090083120313A501A601B6282508200794
:10013800A3002108A2000318A20AA51FA428A2034D
:10014800831203132208A4002408FF002308840054
:10015800C8202321013083120313A5070318A60A18
:100168000030A6072008F5002108F600E8208312D1
:10017800031326087602031DC328250875020318F1
:10018800C628C7289A280800FF1BD22883137F187F
:1001980083170008840A0319FF0A080000308A0040
:1001A8000408840A820700345834553459342034FA
:1001B8004F34533420345634203430342E343134D0
:1001C8002E3432340A3400347508F7007608F80003
:1001D800F3280130F7070318F80A0030F807780801
:1001E80083120313FF0077088400C820003A031D18
:1001F800FE28FF28ED2875087702F5007608031C0D
:10020800760A7802F600080083160313061186148E
:10021800181518101A30990018128312031398171A
:1002280018169812831603130C128C1618138312BF
:100238000313181383160313981298160800F50071
:10024800831203130C1E29292A29242975089900C9
:100258000800F000831203130C1E332934292E29B9
:0602680070089900080077
:08400000FF3FFF3FFF3FFF3FC0
:02400E00EA3F87
:00000001FF
