:020000000E28C8
:10000800FE00030EF8000408F9000A08FA007F0849
:10001800FB0062280F288301112883160313860129
:10002800BD208312031386128B170B170130402053
:10003800063083120313AA001330A900AD30A800BC
:10004800A80B2428A90B2428AA0B24280000533025
:1000580008210A300821063083120313AA0013303E
:10006800A900AD30A800A80B3728A90B3728AA0B80
:10007800372800001C280E2883120313A700A501A7
:10008800A60153282508270784008320082101306A
:1000980083120313A5070318A60A0030A60727082A
:1000A800D8208312031321082602031D5D28200887
:1000B8002502031C602861284628080083120313C0
:1000C8008C1E672868287828861641301A06031D72
:1000D8006E286F2871281130A120831203131A0883
:1000E80012218312031386127B08FF007A088A0004
:1000F80079088400780E8300FE0E7E0E0900003019
:100108008A000408840A8207003458345534593464
:1001180020344F34533420345634203430342E3481
:1001280031342E3432340A340034703461346C344F
:100138006134763469346B340034F500F601F70124
:10014800B028760875078400832012210130F6074D
:100158000318F70A0030F7077508F12071087702CD
:10016800031DB82870087602031CBB28BC28A528E4
:1001780008008316031306118614181518101A3070
:1001880099001812831203139817181698128316D9
:1001980003130C128C1618138312031318138316E7
:1001A800031398129816080083120313A300230858
:1001B800A400E2280130A2002208A4072408840031
:1001C8008320003A031DE928EA28DE2823082402B0
:1001D800A000A101A01BA1030800F3007308F4000C
:1001E800F9280130F2007208F407740884008320AB
:1001F800003A031D00290129F52873087402F0004C
:10020800F101F01BF103080083120313A0000C1E78
:100218000E290F290B29200899000800F0008312E5
:1002280003130C1E182919291329700899000800AE
:08400000FF3FFF3FFF3FFF3FC0
:02400E00EA3F87
:00000001FF
